:020000040800F2
:1000000048050020CD0000089D190008531700087E
:1000100000000000000000000000000000000000E0
:10002000000000000000000000000000A11900080E
:1000300000000000000000009F190008A31900083C
:10004000DF00000800000000DF000008DF000008FB
:10005000DF000008DF000008DF000008DF00000804
:1000600000000000DF000008DF000008DF000008DB
:10007000DF000008DF000008DF00000800000000CB
:10008000151A0008DF000008DF000008DF00000884
:10009000DF000008DF000008DF000008DF000008C4
:1000A000DF000008DF000008DF000008DF000008B4
:1000B000DF000008DF0000080348854600F03CF838
:1000C000004800478D240008480500200448804768
:1000D00004480047FEE7FEE7FEE7FEE7FEE7FEE72F
:1000E000131A0008B900000830B50B46014600207D
:1000F0002022012409E00D46D5409D4205D31D462E
:100100009540491B2546954040191546521E002D25
:10011000F1DC30BDD2B201E00270401C491EFBD2BE
:1001200070470022F6E710B513460A460446194602
:10013000FFF7F0FF204610BD064C0125064E05E0F6
:10014000E36807CC2B430C3C98471034B442F7D3F8
:10015000FFF7B6FFA4250008C425000872B6FEE725
:10016000F0B5002303249AE02A4601259D402A4049
:100170007ED00E79B607B60F012E01D0022E16D111
:1001800086682746B4465E00B646B7406646BE431C
:10019000B446CF687646B7406646374387604668C0
:1001A000AE430D79ED06ED0F9D40354345600D7969
:1001B000ED43AD0708D0C5685F002646BE40B54395
:1001C0008E68BE402E43C6600D79AD07AD0F022D7F
:1001D0000ED1DD08AD002D18AC462D6A5E07F60E77
:1001E0000F27B740BD430F69B7402F4365462F62C5
:1001F00005685F002646BE40B5430E79B607B60FC8
:10020000BE402E4306604D68AD03AD0F46D09E083C
:10021000264DB6007519AC462D6E9E07F60E0F27BB
:10022000B740BD4305273F07B84201D100270FE083
:100230001F4FB84201D101270AE01E4FB84201D139
:10024000022705E01C4FB84201D1032700E0052733
:10025000B7402F43154D664637662D684E68954367
:10026000F60200D51543114F3D607D68954300E0CF
:1002700014E04E68B60200D515437D600B4D803505
:100280006E684F689643BF0300D516436E602E68B4
:100290004F689643FF0300D516432E605B1C0A6827
:1002A0001546DA4000D05FE7F0BD000000180240BC
:1002B0000004005000080050000C00500069084085
:1002C00000D001207047002A01D08161704781620F
:1002D000704700000148806870470000000000205F
:1002E0000248816802788918816070470000002008
:1002F00010B50848002401688215114301600320ED
:1003000000F00AF8002801D0012401E000F028F8EC
:10031000204610BD0020024070B50F4E00243178F9
:100320000546002915D07D20C000FFF7DDFE0146FF
:100330000A480068FFF7D8FE00F00EFC002808D13C
:10034000042D06D200222946401E00F02FF87560C9
:1003500000E00124204670BD000000200C000020B9
:1003600008B50B4801680122114301600068104084
:10037000009007484038C26B01040A43C263C06B57
:10038000084000900320400200F0DCFB08BD0000A4
:1003900040100240002805DBC106C90E012088403C
:1003A000014908607047000000E100E010B501F06D
:1003B00065FF10BD10B50F4C216803225202914316
:1003C00001432160C11FFF39FA390ED10A480621C5
:1003D000006848430949FFF787FE401C02E00028F7
:1003E00005D0401E61694905F9D4002010BD0320E5
:1003F00010BD0000007000400C00002040420F00C3
:10040000F8B5044600680026524D800358D551487F
:1004100000274038C06BC00009D44E484038C26B3A
:1004200001040A43C263C06B0840012700904A4898
:100430000168821511430160FFF74CFF009005E051
:10044000FFF748FF0099401A022825D84248006863
:10045000C005F5D5E8690321090208400FD0A1695C
:1004600081420CD0E86903210902EA69884301212D
:1004700009040A43EA61EA698A43EA61E861C0075C
:100480000FD0FFF727FF009008E0FFF723FF009948
:10049000411A3248814201D9032609E0E869800700
:1004A000F3D5E869032109028843A1690843E8619B
:1004B000002F05D027484038C16B02049143C16327
:1004C0002078C00705D0686961688008800008430B
:1004D00068612078800705D568690C218843A16888
:1004E000084368612078800606D5686903210903FE
:1004F0008843E168084368612088400411D5686931
:10050000616980008008084368610121606989078A
:10051000884206D10F484038C168012212041143B5
:10052000C1602088000512D56869032189038843CA
:10053000216908436861012120698903884206D145
:1005400004484038C168012212041143C16030469A
:10055000F8BD000040100240007000408813000009
:10056000F8B50F46060043D04D4D28684007400FB0
:10057000B84213D22868C008C00038432860FFF78B
:10058000A9FE044605E0FFF7A5FE011B4548814290
:1005900061D828684007400FB842F4D13068424C17
:1005A00081070DD5400704D5A0680721090308433A
:1005B000A060A0680F2109028843B1680843A060C9
:1005C0003078C00732D0706801280AD002280BD0DA
:1005D00000280FD03449403103280ED0C96989075B
:1005E00004E02168890301E021688901002906DB14
:1005F0000120F8BD21684905F8E7096AEFE7A1681D
:10060000C908C9000143A160FFF764FE009006E03D
:10061000FFF760FE0099411A224881421BD8A0686A
:10062000382108407168C9008842F1D12868400724
:10063000400FB84217D91A480168C908C9003943A0
:100640000160FFF747FE054607E0FFF743FE411B49
:100650001448814201D90320F8BD114800684007C1
:10066000400FB842F1D13078400706D5A068072185
:1006700009038843F1680843A06000F031F8A168DD
:100680003C2289091140094A515CC906C90EC8407B
:100690000749086007480068FFF73EFEF8BD000004
:1006A000002002408813000000100240442500088A
:1006B0000C000020040000200648074900688968F3
:1006C000064A4904490F8900515CC906C90EC84051
:1006D000704700000C000020001002408425000834
:1006E00010B5204CA068204A8006400F16D0A068A4
:1006F0008006410F501001290FD0A1688906490FCB
:10070000022912D0A0688006400F042823D0A068D8
:100710008006400F032821D0002010BD2068012151
:100720008004400F8140104612E0E1688B07E168C9
:100730009B0F4906490F491C032B00D01046FFF7B9
:10074000D3FCE1684904490E4843E168490F491C5C
:10075000FFF7CAFC10BD0120C00310BD7D200002C0
:1007600010BD0000001002400024F400F8B50400A1
:100770007ED020783827C007E94D002846D0A868E9
:10078000E96838408907890F102802D008280BD063
:1007900001E0032908D001206268000482420AD1E6
:1007A00029680143296015E0286880032ED5606818
:1007B0000028DDD02AE0052301211B0489049A4288
:1007C0002A6802D10A432A60EAE782432A6028683D
:1007D00088432860606800280CD0FFF77BFD064640
:1007E00004E0FFF777FD801B642873D82868800336
:1007F000F7D50BE0FFF76EFD064604E0FFF76AFD54
:10080000801B6428F1D828688003F7D420788007FB
:1008100069D5A868E96838408A070721920FC9029C
:10082000102802D0002813D001E0022A10D0E0687E
:10083000002846D028688843216908432860286832
:10084000FF21013108432860FFF744FD06462CE0F4
:100850002A68520502D5E268002A89D06A687F2397
:100860001B029A4363691B021A436A60002800E076
:100870008DE00ED1286888432169084328602868E4
:1008800001218004400F8140A648FFF72DFCA649B6
:100890000860A6480068FFF73FFD002877D122E0F6
:1008A000FFF718FD801B02289FD828684005F7D560
:1008B00068687F210902884361690902084368600A
:1008C00011E02968FF20013081432960FFF702FD14
:1008D000064605E098E0FFF7FDFC801B022884D85F
:1008E00028684005F7D42078914E00072ED5A868D7
:1008F0008006400F03280AD0A0690028306A16D06D
:10090000012108433062FFF7E5FC07460BE0306A3F
:1009100080071BD5A06900289FD017E0FFF7DAFCFD
:10092000C01B022870D8306A8007F7D50EE0400857
:1009300040003062FFF7CEFC074604E0FFF7CAFC38
:10094000C01B022860D8306A8007F7D4207840079F
:100950006CD5A86800278006400F042818D0E86BE3
:10096000C00008D4E96B012000070143E963E96B8B
:100970000140012700916F480168C90519D4016839
:10098000821511430160FFF7A5FC00900DE083E0A4
:10099000F06980074AD5A06800287DD046E0FFF7BF
:1009A00099FC0099401A02282ED862480068C005B8
:1009B000F5D5A168012910D004200529F16911D0CD
:1009C00049084900F161F1698143F161A06800289B
:1009D00016D0FFF77FFC00900EE0F069012108437C
:1009E000F061F3E70143F161F7E7FFF773FC00996A
:1009F000411A5148814265D8F0698007F5D50EE06B
:100A0000FFF768FC009007E05CE0FFF763FC0099EB
:100A1000411A4948814255D8F0698007F5D4002F22
:100A200004D0E96B012000078143E963E0690028F5
:100A300073D0A9688906490F02294DD001263606D0
:100A40000228286805D0B0432860FFF743FC04461D
:100A50003AE0B0432860FFF73DFC074604E0FFF7AB
:100A600039FCC01B02282DD828688001F7D4616AA0
:100A7000206AA26A0843E16A120211430843216B0B
:100A80000843E9682D4A11400843E860286830436C
:100A90002860E868012100E03DE009070843E860BC
:100AA000FFF718FC044604E0FFF714FC001B0228C3
:100AB00008D828688001F7D52FE0FFF70BFC001B52
:100AC000022801D90320F8BD28688001F5D4E86820
:100AD0001B490840E86020E00128F4D0E868226A59
:100AE0008107890F914216D17021626A01409142BB
:100AF00011D17F21A26A09020140120291420AD15A
:100B00001F214904E26A0140914204D1400F216B48
:100B10004007884201D00120F8BD0020F8BD000048
:100B2000001002400024F4000C000020040000200B
:100B30004010024000700040881300008C80C11FEC
:100B4000FCFFFEEF03490A6803235B029A4302435A
:100B50000A60704700000140094910B5401E8842F4
:100B600001D9012010BD074C60610321081F01F06D
:100B700085FB0020A06107202061002010BD00003F
:100B8000FFFFFF0000E000E0704770477047000083
:100B900070B5034620331A7F012A4BD001221A7701
:100BA0000325CA682D02AA438D6800682A430125DF
:100BB000AD02AA434D6800242A430125ED02AA4351
:100BC0000D682A4301252D03AA430D692A430125F7
:100BD0006D03AA434D692A430125AD03AA430D6B5A
:100BE0002A430F252D04AA430D8B2D042A43124DB1
:100BF000A84204D101263607B243CE693243A84247
:100C000014D10F252D05AA430D8D2D052A4301254D
:100C10002D06AA430D6A2A4301256D06AA434D6A93
:100C2000C96A2A4301256D07AA430A4342641C7717
:100C3000002070BD022070BD002C0140F0B587B0CF
:100C40000E46040006D025462035687F0027002880
:100C500003D006E0012007B0F0BD2F77204600F05A
:100C600055F802206877211D206800F0DBFEB3688C
:100C700031680322206801F0BBF8206881690C22EA
:100C800091438161206881697268114381612068A4
:100C9000416880221143416020688168194A1140EF
:100CA00081602068816840221143816020688168EA
:100CB000154A1140816020688168042211438160D7
:100CC0003846049705977027069003900097029086
:100CD000F06801906946206800F050FF2068416884
:100CE000B9434160206841685022114341600120AE
:100CF00040342072A877E87720716071687700200F
:100D0000A9E700008FFFCFFFF8FFFEFF70B586B0A8
:100D1000044614216846FFF704FA1B4920688842FC
:100D200030D11A48C16B02242143C163C16B2140F9
:100D30000591416B012529434163416B2940059190
:100D4000416B21434163406B002620400590C02049
:100D5000694651C105206946000703960495FFF7CF
:100D6000FFF9029600956946094803960495019497
:100D7000FFF7F6F9002211461020FFF717FB1020AD
:100D8000FFF708FB06B070BD0004004000100240F1
:100D90000004005070B504462030867FC17F224693
:100DA000403215795379012E05D1012903D1012D46
:100DB00001D1012B01D0012070BD02218177C177C3
:100DC000117151712068C2680A43C260012200217A
:100DD000206800F06BFE0C4920680122884205D093
:100DE0000A49884202D00A49884207D18168094BE2
:100DF0001940062905D0DB1F994202D00168114332
:100E00000160002070BD0000002C01400004004083
:100E10000040014007000100F0B5034620331A7F6F
:100E2000012A27D001221A7702225A7704686268C1
:100E3000A568114FBC4205D116460F2212059643F4
:100E40004A6832437026B2430E68164366600068F3
:100E5000B84205D0094A904202D0094A904204D1D2
:100E600080228968954329438160012058770020BA
:100E70001877F0BD0220F0BD002C014000040040B6
:100E80000040014070B5040005D025462035687F3C
:100E9000002802D006E0012070BD002028772046FF
:100EA00000F016F802206877211D206800F0BAFDD6
:100EB000012240342272AA77EA7722706270A2700F
:100EC000E27022716271A271E2716A77002070BDD6
:100ED00008B500680549884207D105480268C11471
:100EE0000A43026000680840009008BD002C0140E1
:100EF00040100240F8B5054604462035287F0026FC
:100F0000012817D001272F77022068772268906880
:100F10002F4B1840FF231B0298439060086850280D
:100F200038D00EDC20284FD006DC00284CD010280A
:100F30001ED149E00220F8BD302845D0402817D105
:100F40003AE060282ED0702818D001221203801AAF
:100F50000FD090420CD1CB684A688968206800F0B5
:100F6000B2FD20688168012292031143816000E094
:100F700001266F77002028773046F8BDCB684A6895
:100F80008968206800F09FFD2168886877221043F7
:100F90008860EEE7CA684968206800F017FF5021B2
:100FA000206806E0CA684968206800F049FF6021AF
:100FB000206800F093FDDCE7CA684968206800F00B
:100FC00005FF40212068F4E7226801461046F0E75B
:100FD00088FFCEFF7047000070B5044600680169C5
:100FE0000025C9438907002915DBC168C943890762
:100FF00011D4E91E016101202077206880698007F3
:10100000204602D0FFF7E6FF04E000F0CFF82046CC
:1010100000F088F9257720680169C943490717D48A
:10102000C168C943490713D40421C943016102209F
:101030002077206880698005800F204602D0FFF766
:10104000C9FF04E000F0B2F8204600F06BF9257704
:1010500020680169C943090716D4C168C943090753
:1010600012D40821C9430161042020772068C06997
:101070008007204602D0FFF7ADFF04E000F096F8AD
:10108000204600F04FF9257720680169C943C90659
:1010900017D4C168C943C90613D41021C9430161DB
:1010A000082020772068C0698005800F204602D084
:1010B000FFF790FF04E000F079F8204600F032F9E5
:1010C000257720680169C943C90708D1C168C943A8
:1010D000C90704D1891E0161204600F08DF92068FE
:1010E0000169C943090609D4C168C943090605D481
:1010F0008021C94301612046FFF747FD206801694F
:10110000C943C90508D4C168C943090604D41249B2
:1011100001612046FFF738FD20680169C94349068F
:1011200009D4C168C943490605D44021C9430161B6
:10113000204600F063F920680169C943890609D493
:10114000C168C943890605D42021C94301612046ED
:10115000FFF71CFD70BD0000FFFEFFFF10B586B05D
:10116000044614216846FEF7DCFF0E4920688842D9
:1011700015D10D48416B012211434163406B02219F
:10118000104005900720000200900020029003907C
:1011900001910491052069460007FEF7E1FF06B0C2
:1011A00010BD0000002C0140001002407047F8B54F
:1011B00004460020264620360090307F0D46012848
:1011C0000CD00120082730770C2A48D008DC002AF0
:1011D00010D0042A1ED0082A06D130E00220F8BD23
:1011E000102A52D0142A60D00120009000203077BD
:1011F0000098F8BD206800F07BFC206881693943C5
:10120000816120688169042291438161206881693C
:101210002A6911E0206800F0B1FC20688169012290
:10122000D20211438161206881695210914381612A
:10123000206881692A69120211438161D6E720681A
:1012400000F0DEFC2068C1693943C1612068C169D2
:1012500004229143C1612068C1692A6912E02068B3
:1012600000F012FD2068C1690122D2021143C16160
:101270002068C269012189028A43C2612068C1696C
:101280002A6912021143C161B0E7206800F036FDFF
:101290002068416D394341652068426D04218A43CD
:1012A00042652068416D2A6912E0206800F058FD0F
:1012B0002068416D0122D202114341652068426DD0
:1012C000012189028A4342652068416D2A69120220
:1012D000114341658AE770B5040005D025462035E5
:1012E000687F002802D006E0012070BD002028772A
:1012F000204600F016F802206877211D206800F0D3
:1013000091FB012240342272AA77EA772270627040
:10131000A270E27022716271A271E2716A7700209C
:1013200070BD70477047000030B50446022320307E
:1013300000290ED0042911D020464030082912D0AF
:101340000C2915D0102918D0C278012A1AD00120F2
:1013500030BD827F012AFAD1837714E0C27F012A4F
:10136000F5D1C3770FE00278012AF0D103700AE0CB
:101370004278012AEBD1437005E08278012AE6D158
:10138000837000E0C3700122206800F08FFB1449D5
:101390002068144A884207D0904205D0124B9842E8
:1013A00002D0124B984204D1436C0125ED032B432C
:1013B000436420680123884204D00D49884201D04B
:1013C000904207D181680B4A1140062905D0D21FEF
:1013D000914202D0016819430160002030BD000035
:1013E000002C014000400140004401400048014001
:1013F000000400400700010070470000F8B501F04C
:1014000025F8304C014620702FA000F019FF2278FB
:10141000304D012700212E48FF032E01130000F05C
:101420001FFF074F050B11242A384F0003686288FD
:10143000DA63026891630AE00268D1630368628834
:101440009A632BE00268D163036862889A6300683C
:101450004163002239462846FEF735FF0022314617
:101460002846FEF730FF012225E00268D1630268BA
:101470009163618804E003686288DA6302689163BB
:1014800000684163002239462846FEF71CFF01220E
:101490000CE00268D163026891636188006841636F
:1014A000012239462846FEF70EFF00223146284623
:1014B000FEF709FF0022012149032846FEF703FF3A
:1014C000F8BD00001000002025640D0A0000000097
:1014D000180000200004005010B5014680310A7940
:1014E000012A15D001220A7124228A600268136839
:1014F00014686408640014600122520793430022B8
:10150000426600680360202088600A71104610BDA2
:10151000022010BD70B504460546803420790128AC
:101520001AD0012020712420A06028680668026873
:101530005208520002602868826807235B069A43BB
:101540000A438260284600F08FFC2868066020204D
:10155000A0600020207170BD022070BD70B50446EF
:10156000054680342079012819D0012020712420DB
:10157000A060286806680268520852000260286865
:101580008268D200D2080A438260284600F06CFCD0
:10159000286806602020A0600020207170BD022015
:1015A00070BD70B5040005D025468035A8680028B8
:1015B00002D006E0012070BD00202871204600F016
:1015C00027F82420A86020680168490849000160C4
:1015D000204600F003FD0128EDD0A06A002802D0CB
:1015E000204600F063FC206841680922D202914342
:1015F0004160206881682A229143816020680168E7
:10160000012211430160204600F0B6FC70BD0000CD
:1016100030B58DB0044614216846FEF782FD1C21CA
:1016200005A8FEF77EFD15492068884224D10225D1
:10163000002405A805950794FEF7E2FE002801D0D6
:10164000FEF78CFD0E48C26B012149040A43C263B8
:10165000C26B0A400C92426B08210A434263406B02
:10166000039408400C906020009002946946019514
:1016700004940448FEF774FD0DB030BD00440040F2
:1016800000100240000C0050FFB5074604468037AA
:10169000B86883B00D46202802D0022007B0F0BD04
:1016A000002D0CD00598002809D00120A168000366
:1016B000814206D12069002803D1E80701D001202A
:1016C000ECE7002038612120B860FEF703FE0190AE
:1016D000264640360598B0820598F0820120A16820
:1016E0000003814202D12069002802D00295002522
:1016F00015E00020029012E000228021204600F038
:1017000035FD002818D10298002817D021680078EC
:1017100088620298401C0290F08A401EF082F08A93
:10172000019B002806980090E6D100224021204627
:1017300000F01CFD002808D00320AFE728882168AE
:10174000C005C00D8862AD1CE6E72020B86000200F
:10175000A4E7FEE770B586B014216846FEF7E1FC09
:101760001748426B20210A434263426B0A400592AC
:10177000416B012421434163416B21400591426B40
:1017800002210A434263426B0A400592426B0821E0
:101790000A434263406B072508400A4E6D030590DB
:1017A000002229463046FEF78EFD0021029103916A
:1017B0000095019469463046FEF7D2FC06B070BD34
:1017C000001002400004005010B59CB00024199491
:1017D0001A9417941894149415941C210DA8169417
:1017E000FEF79FFC34216846FEF79BFC37483649DC
:1017F0000160032184604160046144613449846173
:10180000C160FFF73FFB002801D0FEF7A7FC0120D5
:101810000003179017A92D48FFF76CFB002801D093
:10182000FEF79CFC2948FFF756FD002801D0FEF783
:1018300095FC1494159414A924481694FFF7ECFA17
:10184000002801D0FEF78AFC602012940E940D90BF
:101850000F941094119400220DA913941B48FFF7C4
:10186000A6FC002801D0FEF779FC04220DA9174838
:10187000FFF79DFC002801D0FEF770FC08220DA99F
:101880001248FFF794FC002801D0FEF767FC012006
:10189000009440030590019402940494000303947F
:1018A00006940794099008940A940B9469460C9442
:1018B0000648FFF76DF9002801D0FEF74FFC0348FA
:1018C000FFF74CFC1CB010BD002C0140180000209C
:1018D0003F06000010B588B0002405940694124815
:1018E00003940494009401940E49029401600F49FA
:1018F0008460416004610E498461C16003A9FFF7FF
:101900009DF9002801D0FEF729FC5020009069467F
:1019100002940548FFF780FA002801D0FEF71EFC6C
:1019200008B010BD00040040640000207F020000E9
:101930000F27000010B5184816490160E12149023F
:10194000416000218160C16001618161C16101620A
:101950000C22416242618162FFF723FE002801D020
:10196000FEF7FCFB00210C48FFF7F8FD002801D032
:10197000FEF7F4FB00210848FFF7CCFD002801D05A
:10198000FEF7ECFB0448FFF7A7FD002801D0FEF7A7
:10199000E5FB10BD00440040B0000020FEE77047AA
:1019A000704710B5FEF79CFC10BD30B591B03421E6
:1019B0006846FEF7B6FB002501200D950E950F95A4
:1019C00040021095FEF7F6FC0224E001039000941B
:1019D0004020059008200A9080030B900794000394
:1019E00004950C90099508946846FEF7BFFE002800
:1019F00001D072B6FEE707200DA931C102210DA862
:101A00001095FEF7ADFD002801D072B6FEE711B0CB
:101A100030BD704710B50248FFF7DEFA10BD000078
:101A200064000020F0B502681A4B1B4C984201D0AC
:101A3000A04203D17025AA434D682A43174D184E82
:101A4000184F98420AD0A04208D0174CA04205D0A7
:101A5000A84203D0B04201D0B84205D114460322B7
:101A600012029443CA6822438024A2434C69224351
:101A700002608A68C2620A688262984205D0A842FF
:101A800003D0B04201D0B84201D1096901630121FC
:101A90004161F0BD002C01400004004000400140C5
:101AA00000440140004801400020004010B5CB0632
:101AB000DB0E0121046A99408C430462016A9A405A
:101AC0001143016210BD30B58468FF252D021B0251
:101AD0001343AC430B432343836030BD8268034B05
:101AE0001A400A4307210A43826070478FFFCFFFE5
:101AF000F0B5026A520852000262056A43688269C0
:101B0000194C1B4E224092080C689200144302228A
:101B100095438A682A43154DA84207D0B04205D0A4
:101B2000144FB84202D0144FB84206D10827BA4326
:101B3000CF681743042297433A46A84207D0B042E1
:101B400005D00C4DA84202D00B4DA84206D103256A
:101B50002D02AB434D691D438B692B434360846168
:101B6000496841630262F0BD8FFFFEFF002C014017
:101B700000400140004401400048014070B5026A45
:101B800010239A430262046A43688269174D2A400F
:101B900003252D02AA430D682D02154320229443EC
:101BA0008A6812012243124CA04207D18024A2432A
:101BB000CC68402624012243B24308E00D4CA042E9
:101BC00005D00D4CA04202D00C4CA04208D10324F9
:101BD000A402A3434C69A4001C438B699B002343CC
:101BE0004360856149688163026270BDFF8FFFFEBB
:101BF000002C0140004001400044014000480140E9
:101C000070B5026AFF2301339A430262046A436893
:101C1000C269184D2A4092080D68920015430122AE
:101C2000520294438A6812022243134CA04208D104
:101C30001446CA68C614B443120222430415A243D0
:101C400008E00E4CA04205D00D4CA04202D00D4C35
:101C5000A04208D103242403A3434C6924011C435C
:101C60008B691B0123434360C5614968C1630262FC
:101C700070BD00008FFFFEFF002C014000400140BE
:101C8000004401400048014030B5026A01231B03B3
:101C90009A430262046A4368C269134D2A400325CD
:101CA0002D02AA430D682D021543012252039443CD
:101CB0008A68120322430D4CA04208D00C4CA0426B
:101CC00005D00C4CA04202D00B4CA04205D10124FF
:101CD000A403A3434C69A40123434360C56149683D
:101CE0000164026230BD0000FF8FFFFE002C014046
:101CF00000400140004401400048014070B5026AC4
:101D000001263604B2430262046A4268436D0F4DF5
:101D10002B400D681D4373009C430B891B04234318
:101D20000B4CA04208D00B4CA04205D00A4CA0425C
:101D300002D00A4CA04203D14C69B2432402224390
:101D40004260456549688165036270BD8FFFFEFF93
:101D5000002C014000400140004401400048014087
:101D600030B5026A01231B059A430262046A426885
:101D7000436D114D2B400D682D021D4301235B0562
:101D80009C430B891B0523430C4CA04208D00C4CF0
:101D9000A04205D00B4CA04202D00B4CA04205D172
:101DA0000124A404A2434C69A40222434260456575
:101DB0004968C165036230BDFF8FFFFE002C014002
:101DC00000400140004401400048014030B5036A32
:101DD000046A6408640004628469F025AC4312015B
:101DE00022430A24A3430B438261036230BD0000F7
:101DF00070B5046A6408640004628469056A0D4E63
:101E0000B04205D00C4EB04202D00C4EB04202D1CE
:101E1000A408A40000E001221443F02294431A070E
:101E2000120E0A2322439D43194029438261016215
:101E300070BD0000002C0140000400400040014043
:101E400030B5036A1024A34303628469036A0F2533
:101E50002D031203AC432243A024A34309011943D9
:101E60008261016230BD0000F8B50446416E403425
:101E7000002915D000688168806809014D0F0A4E5D
:101E8000400F3746315C083F385CC000FEF72CF944
:101E90006085785D715DC000FEF726F92085F8BD8C
:101EA00001206085FAE700003C25000810B5018D8F
:101EB000C90707D001684A6801235B049A43C36AD3
:101EC0001A434A60018D890707D501684A680123D2
:101ED0001B049A43036B1A434A60018D490707D5D7
:101EE00001684A6801239B049A43436B1A434A6082
:101EF000018D090707D501684A680123DB039A436E
:101F0000836B1A434A60018DC90607D50268916840
:101F100001231B039943C36B19439160018D89060B
:101F200007D501688A6801235B039A43036C1A434F
:101F30008A60018D490612D503685A680121090596
:101F4000446C8A4322435A60426C8A4207D1026839
:101F5000516803235B059943836C19435160018DDC
:101F6000090607D501684A680123DB04C06C9A435F
:101F700002434A6010BD0000FEB5064600258036CB
:101F800004463561FEF7A6F9019020680068124FFB
:101F9000000709D501210097002249052046019B31
:101FA00000F0E4F800280DD12068006840070BD548
:101FB00001210097002289052046019B00F0D6F8F8
:101FC000002801D00320FEBD2020B060F060E5664F
:101FD000256735710020FEBDFFFFFF01F8B50446FF
:101FE00080682169E269084361690025114322681C
:101FF00008431168534B1940014311602168486838
:10200000032212039043E26810434860A169206AEA
:102010002268084391684C4B194001439160206845
:10202000C16A626A090909011143C162474A20680D
:10203000474990420AD148698007800F20D0012883
:1020400014D0022810D003281CD111E0414A90423C
:1020500010D148690C21084012D0042806D0082865
:1020600002D00C280ED103E002210CE004210AE08A
:10207000082108E03849884202D03849884201D115
:10208000002100E010210122E369D2033448354EDB
:10209000354F934227D1002906D002290BD00429BD
:1020A00005D008293DD11CE0FEF706FB01E0FEF754
:1020B00017FB00283CD0616A4900715AFEF714F8FA
:1020C000616840004A088018FEF70EF80146103992
:1020D000B94226D82449491C01400007400F084353
:1020E00024E01046E7E7002906D002290BD0042996
:1020F00005D0082915D116E0FEF7DEFA01E0FEF75B
:10210000EFFA002814D0616A4900715AFDF7ECFF1C
:1021100061684A088018FDF7E7FF01461039B942A7
:1021200003D9012504E01046EDE780B22168C860BC
:102130002046012140304185018500206067A0676D
:102140002846F8BDF369FFCFFFF4FF1100380140C6
:10215000401002400044004000480040004C004055
:102160000024F4001C250008EFFF0000FFB581B03B
:1021700005461746044680350A9E54E0701C52D02E
:10218000FEF7A8F80499401AB0422FD8002E2DD09F
:1021900020680168490746D5C069C043000542D49C
:1021A00001202168C0020862EFF31080012181F351
:1021B000108821680B68FF22A13293430B6080F3E3
:1021C0001088EFF31080012181F3108821688A685C
:1021D000520852008A6080F310882020A860E860CE
:1021E000286100202871032005B0F0BDEFF31080B6
:1021F000012181F3108821680A68FF23A1339A43E3
:102200000A6080F31088EFF31080012181F31088B9
:1022100021688A68520852008A6080F31088202062
:10222000A860E860DDE72068C1690298884304D0AF
:102230000020B842A2D00020D6E70120F9E7000034
:102240000FB410B503A9044B044A029800F048F8F3
:1022500010BC08BC04B0184731240008140000204A
:1022600030B47446641E2578641CAB4200D21D460F
:10227000635D5B00E31830BC184700008307FF2252
:10228000DB0E9A408907090E9940002808DB830875
:1022900009489B001B181868904308431860704752
:1022A0000007000F0838830804489B001B18D869F2
:1022B00090430843D861704700E400E000ED00E07F
:1022C00002E008C8121F08C1002AFAD170477047FF
:1022D000002001E001C1121F002AFBD1704700005D
:1022E000FFB58DB00446002506E025280AD0109AD7
:1022F0000F999047641C6D1C20780028F5D1284662
:1023000011B0F0BD00270121484A009700E00743C3
:10231000641C23780846203B98401042F7D120786F
:102320002E2817D1042007436078641C2A280CD17A
:102330000E98641C02C800910E900BE000990A22CE
:10234000514330394018641C0090207801463039E0
:102350000929F3D920780028D1D0642808D0692829
:1023600006D075281ED0109A0F9990476D1C5BE01F
:102370000A200E99019001C90E91002802DA40420C
:102380002D2102E0390504D52B216A461172012165
:1023900003E0F90704D02021F7E70BAE0B910DE025
:1023A0000021FAE70A200E99019001C90E91F7E782
:1023B0000199FDF799FE3031761E31700028F7D172
:1023C00003A8801B20300190780701D5009801E018
:1023D000012000900199884201DD401A00E00020B0
:1023E0000027009006E002A8109AC05D0F99904760
:1023F0006D1C7F1C0B988742F5DB04E0109A30209F
:102400000F9990476D1C0099481E00900029F5DC3B
:1024100005E03078109A761C0F9990476D1C019951
:10242000481E01900029F4DC641C65E709280100BE
:1024300013B5044B012269460348FFF725F90098BC
:102440001CBD0000FFFF0000B000002070B5052596
:102450002D07002440212846FDF730FF002800D03A
:10246000012480212846FDF729FF002801D0022001
:10247000044301210448FDF721FF002801D0042076
:102480000443204670BD000000040050FDF730FFFB
:10249000FFF78BFAFFF75EF9FFF74CFAFFF71AFA2E
:1024A000FFF792F91A480168CA6840231A43CA60C4
:1024B0000068C16801221143C1601548FEF76AFC3B
:1024C00000211448FEF730FF04211248FEF72CFFCC
:1024D00008211048FEF728FF0E4900200A68D06343
:1024E0000A689063096848630B4C02460121C903DE
:1024F0002046FDF7E8FE002221012046FDF7E3FE1D
:102500000121002249032046FDF7DDFEFEE7000021
:1025100064000020180000200004005001000200A8
:102520000400060008000A000C0010002000400013
:1025300080000001010101030701000008040204FA
:102540000801010100000000000000000000000080
:10255000000000000000000000000000000000007B
:102560000000000001000000020000000300000065
:102570000400000006000000070000000800000042
:102580000900000000000000000000000000000042
:102590000000000001000000020000000300000035
:1025A00004000000C42500080000002018000000FE
:1025B000C0220008DC2500081800002030050000BB
:1025C000D02200080100000004000000000000000C
:0C25D0000024F4000000200300000000C4
:04000005080000B936
:00000001FF
